:020000040800F2
:100000000020002001030008ED020008EF020008B4
:1000100000000000000000000000000000000000E0
:10002000000000000000000000000000F1020008D5
:100030000000000000000000F3020008F5020008C4
:10004000510300080000000051030008510300089C
:100050005103000851030008510300085103000830
:10006000000000005103000851030008510300087C
:10007000510300085103000851030008000000006C
:1000800051030008000000000000000051030008B8
:10009000000000005103000851030008510300084C
:1000A00051030008510300085103000851030008E0
:0800B0005103000800000000EC
:1000B80010B5064C2378002B07D1054B002B02D036
:1000C800044800E000BF0123237010BD3C04002059
:1000D80000000000BC0D0008044B10B5002B03D035
:1000E8000349044800E000BF10BDC04600000000FE
:1000F80040040020BC0D0008002243088B4274D342
:1001080003098B425FD3030A8B4244D3030B8B4210
:1001180028D3030C8B420DD3FF22090212BA030C19
:100128008B4202D31212090265D0030B8B4219D3FA
:1001380000E0090AC30B8B4201D3CB03C01A52411A
:10014800830B8B4201D38B03C01A5241430B8B4262
:1001580001D34B03C01A5241030B8B4201D30B034B
:10016800C01A5241C30A8B4201D3CB02C01A524172
:10017800830A8B4201D38B02C01A5241430A8B4235
:1001880001D34B02C01A5241030A8B4201D30B021E
:10019800C01A5241CDD2C3098B4201D3CB01C01A38
:1001A800524183098B4201D38B01C01A5241430942
:1001B8008B4201D34B01C01A524103098B4201D330
:1001C8000B01C01A5241C3088B4201D3CB00C01A9D
:1001D800524183088B4201D38B00C01A5241430815
:1001E8008B4201D34B00C01A5241411A00D201463A
:1001F800524110467047FFE701B5002000F006F8AD
:1002080002BDC0460029F7D076E770477047C04660
:1002180082B0054A516B012319435163526B134055
:100228000193019B02B070470010024072B6FEE7CE
:1002380000B593B03422002105A800F0E5FC102297
:10024800002101A800F0E0FC8020800000F01CF9EB
:1002580002230593FE3308930023099340220A9250
:100268000C9305A800F03AF900280DD10723019353
:100278000023029303930493002101A800F0DCFB00
:10028800002803D113B000BDFFF7D0FFFFF7CEFF62
:1002980080B5074FBD448022D2000021684600F097
:1002A800B3FC00F07FF8FFF7C3FFFFF7B1FFFEE7ED
:1002B80000FCFFFF82B00A4B196C0122114319643C
:1002C800196C0A400092009ADA6B802149050A43AA
:1002D800DA63DB6B0B400193019B02B07047C046A9
:1002E80000100240FEE7FEE77047704710B500F0C7
:1002F8006DF810BD704700000D488546FFF7FAFFFE
:100308000C480D490D4A002302E0D458C450043368
:10031800C4188C42F9D30A4A0A4C002301E013603E
:100328000432A242FBD300F04DFCFFF7B1FFFEE719
:1003380000200020000000203C040020240E0008BB
:100348003C04002060040020FEE7000010B5040013
:10035800114B1978002901D1012010BDFA20800025
:10036800FFF7CAFE01000D4B1868FFF7C5FE00F045
:100378006FF800280DD1032C01D90120EDE70130D9
:1003880000222100404200F033F8054B1C60002099
:10039800E3E70120E1E7C046040000200000002058
:1003A8000800002010B5084A116880235B000B4341
:1003B80013600320FFF7CAFF041E02D001242000A7
:1003C80010BDFFF777FFFAE700200240034B1B78C8
:1003D800034A11685B1813607047C0460400002088
:1003E80058040020014B18687047C0465804002084
:1003F80070B5002811DB8308134EC0339B009D594C
:1004080003242040C000FF2214008440A543890132
:100418000A4082402A439A5170BD0F230340083B8B
:100428009B0806339B00094A944663445C68032290
:100438001040C000FC3215008540AC4389010A40D9
:10044800824022435A60E7E700E100E000ED00E067
:10045800013880235B0498420FD2094A506009484A
:10046800036A1B021B0AC02109060B43036200230F
:10047800936007331360002070470120FCE7C046F3
:1004880010E000E000ED00E010B5104A13681049D4
:100498000B400343136080239B00984201D0002047
:1004A80010BD0C4B1B685800C01840000A49FFF7E4
:1004B80023FE0130054B5B695B0503D5002803D09B
:1004C8000138F7E70020EBE70320E9E70070004078
:1004D800FFF9FFFF0000002040420F0070B582B016
:1004E800041E00D129E20368DB0739D5C14A9168A7
:1004F80038230B40D16803220A40102B26D0082B42
:1005080026D063688022520293427FD0A022D20272
:10051800934200D181E0B74B1A68B7490A401A6084
:100528001A68B6490A401A606368002B00D180E057
:10053800FFF758FF0500AF4B1B689B0310D4FFF76C
:1005480051FF401B6428F6D90320F7E1032AD6D1CE
:10055800A84B1B689B0303D56368002B00D1EFE110
:1005680023689B0731D5A34A936838210B40D1688B
:1005780003220A40102B6AD0002B6BD19D4A1268C7
:10058800520503D5E268002A00D1DBE199484268A8
:100598009B490A40616909020A434260002B0DD158
:1005A800036898490B4021690B4303600368DB0A21
:1005B80007221A40944BD340944A1360944B18680E
:1005C800FFF7C4FE002800D0BEE123681B0700D453
:1005D80081E0884B9A6838231340182B73D0A3699D
:1005E800002B00D1B4E0834A136E01210B4313663C
:1005F800FFF7F8FE05007F4B1B6E9B076BD4FFF7D8
:10060800F1FE401B0228F6D9032097E1794A1168C8
:1006180080235B020B43136086E7764B19688022C0
:10062800D2020A431A601968802252020A431A60E9
:100638007AE7FFF7D7FE05006E4B1B689B038FD543
:10064800FFF7D0FE401B6428F6D9032076E1022A82
:1006580092D193E7E368002B22D0664A1368694970
:100668000B4021690B431360116880235B000B4327
:100678001360FFF7B7FE05005E4B1B685B0506D4E9
:10068800FFF7B0FE401B0228F6D9032056E159496E
:100698004B685B4A13406269120213434B6094E74C
:1006A800544A13685B490B401360FFF79BFE050033
:1006B800504B1B685B0588D5FFF794FE401B02284A
:1006C800F6D903203AE14B4B1B6E9B0703D5A36970
:1006D800002B00D13AE123685B0700D4A2E0454B28
:1006E8009A6838231340202B45D0424BDB6BDB0044
:1006F8004AD4404AD16B802040050143D163D36B73
:1007080003400193019B0125434B1B68DB053DD545
:10071800A368012B4ED0052B52D0364BDA6D012140
:100728008A43DA65DA6D03318A43DA65A368002BF8
:1007380050D0FFF757FE06002E4BDB6D9B076FD49A
:10074800FFF750FE801B354B9842F5D90320F5E0A2
:10075800284A136E01218B431366FFF743FE0500F9
:10076800244B1B6E9B07B6D5FFF73CFE401B0228A7
:10077800F6D90320E2E01F4BDB6D9B0752D5A36837
:10078800002B4FD10120D9E00025BDE7224A11688E
:1007980080235B000B431360FFF724FE06001E4B0B
:1007A8001B68DB05B4D4FFF71DFE801B0228F6D9B1
:1007B8000320C3E00F4AD36D01210B43D365B5E78E
:1007C8000C4BDA6D04210A43DA65DA6D03390A4302
:1007D800DA65ABE7FFF706FE0600064BDB6D9B0705
:1007E8001ED5FFF7FFFD801B0C4B9842F5D903205F
:1007F800A4E0C04600100240FFFFFEFFFFFFFBFF22
:10080800FF80FFFFFFC7FFFF0024F4000000002067
:1008180008000020FFFEFFFF007000408813000062
:10082800012D1ED0E369002B00D191E04F4A916859
:1008380038220A40102A5ED0022B18D04B4A13687F
:100848004B490B401360FFF7CDFD0400474B1B6875
:100858009B0149D5FFF7C6FD001B0228F6D90320E6
:100868006CE0424AD36B43490B40D363DAE73F4A13
:1008780013683F490B401360FFF7B4FD05003B4B7D
:100888001B689B0106D5FFF7ADFD401B0228F6D972
:10089800032053E0354AD36837491940236A606A10
:1008A8000343A06A00020343E06A0343206B034347
:1008B8000B43D360116880235B040B431360D1683A
:1008C80080235B050B43D360FFF78CFD0400274BA7
:1008D8001B689B0106D4FFF785FD001B0228F6D98B
:1008E80003202BE0002029E0204AD36823490B404D
:1008F800D360002022E0012B2CD01C4BDA680323A4
:100908001340216A8B4227D170231340616A8B42BE
:1009180024D1FE21C9011140A36A1B0299421FD1AB
:10092800F8239B031340E16A8B421BD1520F5207F5
:10093800236B9A4218D1002000E0012002B070BD5C
:100948000120FBE70120F9E70120F7E70120F5E79F
:100958000020F3E70120F1E70120EFE70120EDE7B0
:100968000120EBE70120E9E70120E7E7001002405A
:10097800FFFFFFFEFFFFFFEF8C80C11FFCFFFEEFB4
:1009880010B52A4B9B6838221A4207D1274B1A68A0
:10099800D20A072313402648D84010BD234B9A6833
:1009A80038231340082B3BD0204B9A683823134038
:1009B800102B0DD01D4B9A6838231340202B31D0B3
:1009C8001A4B9A6838231340182B26D00020E4E7E6
:1009D800164AD1680D3B0B40D26812090721114015
:1009E8000131032B0FD01248FFF786FB0F4BDA6853
:1009F800120A7F23134058430C4BD968490F013121
:100A0800FFF77AFBC9E70B48FFF776FB074BDA6875
:100A1800120A7F2313405843EEE7FA20C001BCE7CF
:100A28000448BAE780200002B7E7C0460010024039
:100A38000024F40000127A0070B504000D000028AC
:100A480000D1AAE0574B1A68072313408B4221D3E1
:100A580023689A070ED55B0705D5534A9168E023AA
:100A6800DB010B439360504A936850490B40A168DF
:100A78000B4393602368DB0754D56368012B20D0B0
:100A8800022B3BD0002B3FD1474A126852051CD499
:100A980001206AE0434A136807218B432B43136004
:100AA800FFF7A0FC06003F4B1A6807231340AB4230
:100AB800CED0FFF797FC801B3D4A9042F3D9032024
:100AC80053E0394A1268920369D537498A68072082
:100AD800824313438B60FFF785FC0600324B9B680B
:100AE80038221A406368DB009A421BD0FFF77AFC71
:100AF800801B2F4B9842F1D9032036E02A4A12680E
:100B08009201E2D4012030E0032B05D0264AD26DB1
:100B18009207DAD4012028E0234A126E9207D4D42F
:100B2800012022E01F4B1A6807231340AB421DD84F
:100B380023685B0706D51C4A93681E490B40E16889
:100B48000B439360FFF71CFF174B9A68120A0F2399
:100B580013409B00184A9A581F231340D840174B3C
:100B68001860174B1868FFF7F1FB70BD0D4A136842
:100B780007218B432B431360FFF734FC0600094B16
:100B88001A6807231340AB42D2D0FFF72BFC801B17
:100B9800074B9842F3D90320E7E70120E5E7012056
:100BA800E3E7C0460020024000100240FFF0FFFFCC
:100BB80088130000FF8FFFFFD40D000800000020FD
:100BC8000800002070B50C4D0C4E761BB61005D0F1
:100BD800002408CD01349847A642FAD100F0EAF87B
:100BE800074D084E761BB61005D0002408CD0134F9
:100BF8009847A642FAD170BD180E0008180E0008D2
:100C0800180E0008200E0008F0B50500830749D02B
:100C1800541E002A45D003000326CAB202E001355B
:100C2800013C3ED301332A703342F8D1032C30D92A
:100C3800FF220A40150215432A0415430F2C34D904
:100C48002700103F3F093E01B4461E001A00103627
:100C58006644156055609560D5601032B242F8D18F
:100C680001373F01DB190F270C22274022403C00A7
:100C7800002A0ED03E1FB608B400A4461A001C1D58
:100C8800644420C2A242FCD103240136B6009B1959
:100C98003C40002C05D0C9B21C19197001339C4284
:100CA800FBD1F0BD03001400C0E72700E2E7C0460F
:100CB800034B10B5002B02D0024800F005F810BD18
:100CC80000000000E10C000810B50100002300221C
:100CD800002000F019F810BD70B5074D074C641BD3
:100CE800A41005D0013CA300EB589847002CF9D17B
:100CF80000F066F870BDC046200E0008240E0008FB
:100D08007047C0467047C046F0B5D6464F4646467F
:100D1800C0B5264F82B00600386892469846894684
:100D2800FFF7EEFF224B1B680193A423019A5B0097
:100D3800D558002D2ED06C681F2C30DC002E0FD11A
:100D4800631C6B604B460234A40038686351FFF79C
:100D5800D9FF002002B0E0BCBA46B146A846F0BDB3
:100D6800882251462800A300EB189950873AA240E0
:100D78008930FF30016811430160842140464900F1
:100D88005850022EDCD12B008D33FF3319680A43EB
:100D98001A60D5E715004D35FF35D550CBE73868D3
:100DA800FFF7B0FF01204042D4E7C04638040020D6
:100DB800140E0008F8B5C046F8BC08BC9E4670473B
:0C0DC800F8B5C046F8BC08BC9E46704759
:100DD400000000000000000000000000000000000F
:100DE40000000000000000000000000000000000FF
:100DF40001000000020000000300000004000000E5
:100E040006000000070000000800000009000000C0
:040E140010000020AA
:080E1800B90C0008E10000081C
:040E2000B90000080D
:100E24000024F400010000000400000000000000A1
:100E340000000000FC02002064030020CC0300201A
:100E4400000000000000000000000000000000009E
:100E5400000000000000000000000000000000008E
:100E6400000000000000000000000000000000007E
:100E7400000000000000000000000000000000006E
:100E8400000000000000000000000000000000005E
:100E9400000000000000000000000000000000004E
:100EA400000000000000000000000000000000003E
:100EB400000000000000000000000000000000002E
:100EC400000000000000000000000000000000001E
:100ED400000000000000000001000000000000000D
:100EE4000E33CDAB34126DE6ECDE05000B000000D2
:100EF40000000000000000000000000000000000EE
:100F040000000000000000000000000000000000DD
:100F140000000000000000000000000000000000CD
:100F240000000000000000000000000000000000BD
:0C12540000000000000000005C0400200E
:0400000508000301EB
:00000001FF
